:10000300A2AF9200C2AF75C7AA75C755439F01A29D
:100013000092AF75A630E4F5A775AF04A2AF9200C6
:10002300C2AF75C7AA75C75543A401A20092AF8595
:10003300AE0A75A631F5A7A2AF9200C2AF75C7AAE3
:1000430075C75543A401A20092AF85AE0BA2AF9230
:1000530000C2AF75C7AA75C755539FFEA20092AFE2
:10006300E50A25E0FFE433FEE50B54017C002FF5A0
:1000730009EC3EF50874F12509F50974FF3508F517
:1000830008E5095401F50BE508C313E50913F50A5F
:1000930075C7AA75C755850A8475C7AA75C75585D7
:0300A3000B8522A8
:1001F800E4F59553B3FD43B40212000375955043DB
:040208008E0280FEE4
:1001D700538EF7438901D28CEF4E6012758AF375FF
:1001E7008CFF308DFDC28DEF1F70ED1E80EAC28C33
:0101F70022E5
:100141008F0F8E0E8D0D8C0C538EF7438901D28C3F
:10015100E4FFFEFDFCAB0FAA0EA90DA80CC3120211
:100161000C6025758ACA758CFA308DFDC28DE50F3C
:1001710024FFF50FE50E34FFF50EE50D34FFF50D07
:0B018100E50C34FFF50C80C8C28C2296
:10018C008F138E128D118C10538EEF438910D28EDB
:10019C00E4FFFEFDFCAB13AA12A911A810C31202B6
:1001AC000C6025758BCA758DFA308FFDC28FE513E7
:1001BC0024FFF513E51234FFF512E51134FFF511A8
:0B01CC00E51034FFF51080C8C28E2241
:1000A6008F178E168D158C1453C9BF53C9DF43C9DC
:1000B60010D2CAE4FFFEFDFCAB17AA16A915A814B8
:1000C600C312020C602575CC6075CDF030CFFDC231
:1000D600CFE51724FFF517E51634FFF516E51534B9
:0E00E600FFF515E51434FFF51480C8C2CA22D8
:1000F4008F1B8E1A8D198C1875C40243C408E4FF33
:10010400FEFDFCAB1BAA1AA919A818C312020C60A5
:100114002875C56075C6F0E5C430E4FB53C4EFE54B
:100124001B24FFF51BE51A34FFF51AE51934FFF516
:0D01340019E51834FFF51880C553C4F722F3
:0300000002021DDC
:0C021D00787FE4F6D8FD7581200201F81E
:10020C00EB9FF5F0EA9E42F0E99D42F0E89C45F048
:01021C0022BF
:00000001FF
