:1003DA00A2AF9202C2AF75C7AA75C75543A504A2B8
:0303EA000292AFCD
:1003ED00A2AF9202C2AF75C7AA75C75543A401A2A9
:1003FD000292AFE59F30E61CC2927F647E007D00C5
:10040D007C00120344D2927F647E007D007C00123A
:05041D00034480E4220D
:10042200A2AF9202C2AF75C7AA75C755439F01A278
:100432000292AFE4F5A6F5A775AEFF75AFE212031F
:10044200DAA2AF9202C2AF75C7AA75C75553A5FB10
:10045200A20292AFA2AF9202C2AF75C7AA75C755E8
:08046200539FFEA20292AF229B
:10000300A2AF9202C2AF75C7AA75C755439F01A29B
:100013000292AFA2AF9202C2AF75C7AA75C755438A
:10002300A501A20292AF75AEFF75AF22E4F508F504
:1000330009E50975F080A4F5A6E509AE087807C3BC
:1000430033CE33CED8F9EEF5A71203ED0509E50952
:1000530070020508C39440E508940040D4A2AF920F
:1000630002C2AF75C7AA75C75553A5FEA20292AFC8
:10007300A2AF9202C2AF75C7AA75C755539FFEA21E
:030083000292AF37
:010086002257
:1000FF00C200A2AF9202C2AF75C7AA75C755439F80
:10010F0001A20292AFE4F5A6F5A7F5AFF51EF51F14
:10011F00E4F5AE1203EDE5AEF46004D200801905EC
:10012F00A6E5A6700205A7051FE51F7002051EC3F1
:10013F009440E51E940040D8A2AF9202C2AF75C79B
:10014F00AA75C755539FFEA20292AF300002D32269
:01015F00C3DC
:01016000227C
:10008700A2AF9202C2AF75C7AA75C755439F01A217
:100097000292AFA2AF9202C2AF75C7AA75C7554306
:1000A700A501A20292AFE4F5A6F5A775AEFF75AF5D
:1000B70021F508F50905AE1203ED05A6E5A67002C0
:1000C70005A70509E50970020508C3E5089420405E
:1000D700E4A2AF9202C2AF75C7AA75C75553A5FE72
:1000E700A20292AFA2AF9202C2AF75C7AA75C75557
:0700F700539FFEA20292AF2D
:0100FE0022DF
:10016100C201A2AF9202C2AF75C7AA75C755439F1C
:1001710001A20292AFE4F5A6F5A7F5AFF527F525A3
:10018100F5261203EDE5AE65276004D2018019055D
:10019100A6E5A6700205A705270526E52670020536
:1001A10025C3E525942040DAA2AF9202C2AF75C7FC
:1001B100AA75C755539FFEA20292AF300102D32206
:0101C100C37A
:0101C200221A
:10046A00A2AF9202C2AF75C7AA75C755439F01A230
:10047A000292AF8FA6E4F5A78DAE75AFE11203DA4B
:10048A00A2AF9202C2AF75C7AA75C75553A5FBA200
:10049A000292AFA2AF9202C2AF75C7AA75C75553EF
:0704AA009FFEA20292AF22A7
:1001C300E4F5B1F5B1F5B3F5B4F5ACF5ADC2927F95
:1001D3002C7E01FDFC120344D2927F2C7E017D0014
:1001E3007C00120344C2927F2C7E017D007C0012AE
:1001F3000344D2921200031200877D0F7F0412047E
:0E0203006A7FC87E007D007C0012034480FEEE
:1002F9008F118E108D0F8C0E538EF7438901D28C7E
:10030900E4FFFEFDFCAB11AA10A90FA80EC312044D
:10031900DD6025758A7E758CFF308DFDC28DE511F6
:1003290024FFF511E51034FFF510E50F34FFF50F43
:0B033900E50E34FFF50E80C8C28C22D8
:100344008F0D8E0C8D0B8C0A538EF7438901D28C42
:10035400E4FFFEFDFCAB0DAA0CA90BA80AC3120412
:10036400DD6025758ACA758CFA308DFDC28DE50D68
:1003740024FFF50DE50C34FFF50CE50B34FFF50B0C
:0B038400E50A34FFF50A80C8C28C2295
:10038F008F158E148D138C12538EEF438910D28ECE
:10039F00E4FFFEFDFCAB15AA14A913A812C31204A7
:1003AF00DD6025758BEA758DCB308FFDC28FE5151E
:1003BF0024FFF515E51434FFF514E51334FFF51399
:0B03CF00E51234FFF51280C8C28E2238
:100211008F198E188D178C1653C9BF53C9DF43C967
:1002210010D2CAE4FFFEFDFCAB19AA18A917A81643
:10023100C31204DD602575CC3075CDF830CFFDC219
:10024100CFE51924FFF519E51834FFF518E5173442
:0E025100FFF517E51634FFF51680C8C2CA2265
:10025F008F1D8E1C8D1B8C1A75C40743C408E4FFB9
:10026F00FEFDFCAB1DAA1CA91BA81AC31204DD605E
:10027F002875C52C75C6CFE5C430E4FB53C4EFE534
:10028F001D24FFF51DE51C34FFF51CE51B34FFF5A0
:0D029F001BE51A34FFF51A80C553C4F72281
:1002AC008F248E238D228C2175C40743C408E4FF50
:1002BC00FEFDFCAB24AA23A922A821C31204DD60F5
:1002CC002875C5D875C6FFE5C430E4FB53C4EFE50B
:1002DC002424FFF524E52334FFF523E52234FFF530
:0D02EC0022E52134FFF52180C553C4F7221F
:030000000204B146
:1004B10075C7AA75C75575FD5A75C7AA75C755750C
:1004C100FDA5787FE4F6D8FD9000007FFF7E03E470
:0C04D100F0A3DFFCDEFA7581270201C3F6
:1004DD00EB9FF5F0EA9E42F0E99D42F0E89C45F075
:0104ED0022EC
:00000001FF
