:0F000E00758A00758C00D28C43B71075A89222AA
:1007A700759852438922438780438E1053C4DF755F
:0907B7008DF7D28ED2ACD2AF2234
:1007710053A2FB759852438922438780438E1053BD
:0C078100C4DF758DE5D28ED2ACD2AF2261
:10074D00750F00E50FC394405019C299AF0F744057
:10075D002FF582E43400F583E0FF8F993099FD0584
:04076D000F80E022F7
:030023000206A131
:1006A100C0E0C083C082C0D075D000C007309813AD
:1006B100AF16051674002FF582E43400F583E59931
:1006C100F0C298309902C299E516B40105C20275CB
:1006D1000A5AE516B4400AD204750A00C202751618
:0C06E10000D007D0D0D082D083D0E0320F
:03000B00020726C3
:10072600C0E0E50945086010E509150970021508DD
:10073600E50945087002D201E50A6008150AE50ACE
:070746007002D202D0E03284
:10061400A2AF9200C2AF75C7AA75C755439F01A286
:100624000092AF75AF0C75A60075A70075C7AA75C3
:10063400C75543A40185AE2675A60175C7AA75C71B
:100644005543A40185AE2575AFC075A60075A700F6
:1006540075C7AA75C75543A40185AE2775A601754C
:10066400C7AA75C75543A40185AE2875A60275C7E8
:10067400AA75C75543A40185AE2975A60475C7AAF2
:1006840075C75543A40185AE2AA2AF9200C2AF75C7
:0D069400C7AA75C755539FFEA20092AF2262
:10057300750E00750D00750C00750B00750F00E509
:100583000FC39440502AAF0F74002FF582E4340058
:10059300F583E0FFE4FCFDFEE50E2FF50EE50D3ED1
:1005A300F50DE50C3DF50CE50B3CF50B050F80CF88
:1005B300E50E54FFFFE50D5400FEE50C5400FDE588
:1005C3000B5400FC900040EFF0AF0EAE0DAD0CAC41
:1005D3000B78081206EDEF54FFFFEE5400FEED54C6
:1005E30000FDEC5400FC900041EFF0900004E0FFAC
:1005F300EF04FF900044EFF0900005E0FF9000450A
:10060300EFF0900044E0FFEF7006900045E004F047
:0106130022C4
:1004C400A2AF9200C2AF75C7AA75C755439F01A2D8
:1004D4000092AF75A63075A70075AF04A2AF920065
:1004E400C2AF75C7AA75C75543A401A20092AF85D0
:1004F400AE2375A63175A700A2AF9200C2AF75C72F
:10050400AA75C75543A401A20092AF85AE24A2AF39
:100514009200C2AF75C7AA75C755539FFEA2009239
:10052400AF532401AF237E00EF25E0FFEE33FEE559
:10053400245401FD7C00EF2DF522EE3CF52174F1ED
:100544002522F52274FF3521F521AF22EF5401F560
:1005540024E521C313FEE52213FF8F2375C7AA7573
:0F056400C75585238475C7AA75C7558524852279
:1000260075B10075B20075B30075B40075B500758D
:10003600B60075AC0075AD001204C41206141207A2
:10004600A7789076AAC201750813750988C203209D
:100056000402818EC2AF2003022143750F08E50F0B
:10006600C394404002210275AF21AF18EF54FFF54B
:10007600A6E517FF7E00EF54FFF5A7AF0F74002F1C
:10008600F582E43400F583E0FF8FAE75C7AA75C725
:100096005543A40175AF0075C7AA75C75543A4019A
:1000A600AF0F74002FF582E43400F583E0FFE5AE70
:1000B6006F600280FEE59FB4430280FEAF0F7400BE
:1000C6002FF582E43400F583E0FFE4FCFDFEE51540
:1000D6002FF515E5143EF514E5133DF513E5123C31
:1000E600F5120518E51870020517E518B51109E5AA
:1000F60017B51004C2038004050F0164120573E5E9
:100106001554FFFFE5145400FEE5135400FDE512F7
:100116005400FC900048EFF0AF15AE14AD13AC12CE
:1001260078081206EDEF54FFFFEE5400FEED540082
:10013600FDEC5400FC900049EFF012074D900000D2
:10014600E0FFEF1207000312A001DCA101A4A20147
:1001560068A40178A604AFAB0168AE0186B10000C1
:10016600048712057312074D750800750900C20150
:1001760081871205739000487427F012074D818716
:10018600120573900048E526F0900049E525F090A9
:10019600004AE4F090004BE4F012074D8187120507
:1001A60073900048E527F0900049E528F090004A52
:1001B600E529F090004B74FFF090004CE52AF09092
:1001C600004D74FFF090004E74FFF090004F74FFE6
:1001D600F012074D8187900008E0FF8F2C900009F0
:1001E600E0FF8F2D90000AE0FF8F2E90000CE0FFBD
:1001F6008F2FA2AF9200C2AF75C7AA75C755439F8E
:1002060001A20092AFA2AF9200C2AF75C7AA75C78E
:100216005543A504A20092AF75AFE275A60075A777
:100226000075AEFF75C7AA75C75543A40175AFE142
:1002360075A60075A700852CAE75C7AA75C7554368
:10024600A401852DAE75A60175C7AA75C75543A429
:100256000175A602852EAE75C7AA75C75543A401BA
:1002660075A604852FAE75C7AA75C75543A401A206
:10027600AF9200C2AF75C7AA75C75553A5FBA200BA
:1002860092AF75AFC075A60075C7AA75C75543A4CA
:100296000185AE2775A60175C7AA75C75543A40182
:1002A60085AE2875A60275C7AA75C75543A40185EC
:1002B600AE2975A60475C7AA75C75543A40185AEB0
:1002C6002AA2AF9200C2AF75C7AA75C755539FFE43
:1002D600A20092AF120573900048E527F0900049FE
:1002E600E528F090004AE529F090004B74FFF09065
:1002F600004CE52AF090004D74FFF090004E74FF1C
:10030600F090004F74FFF012074D818775C7AA75EC
:10031600C755439F0175C7AA75C75543A50175AE55
:10032600FF75AF22751700751800C3E5189440E5F0
:100336001794005034AF18EF75F080A4FFEF54FF08
:10034600F5A6E518AE177807C333CE33CED8F9FF36
:10035600EEFF7E008FA775C7AA75C75543A4010592
:1003660018E5187002051780C1751500751400751B
:1003760013007512007517007518007510007511B9
:100386000090000CE0FF7E008E108F1190000DE0B3
:10039600FF7E00EF7F00FEEF4211EE4210D20375A2
:1003A6000F10E50FC394404002814675AF21AF1888
:1003B600EF54FFF5A6E517FF7E00EF54FFF5A7AF54
:1003C6000F74002FF582E43400F583E0FF8FAE75DD
:1003D600C7AA75C75543A40175AF0075C7AA75C7E7
:1003E6005543A401AF0F74002FF582E43400F58362
:1003F600E0FFE5AE6F600280FEE59FB4430280FE3B
:10040600AF0F74002FF582E43400F583E0FFE4FCBF
:10041600FDFEE5152FF515E5143EF514E5133DF53E
:1004260013E5123CF5120518E51870020517E518D4
:10043600B51109E517B51004C2038004050F61A8BC
:10044600120573E51554FFFFE5145400FEE5135439
:1004560000FDE5125400FC900048EFF0AF15AE1415
:10046600AD13AC1278081206EDEF54FFFFEE540000
:10047600FEED5400FDEC5400FC900049EFF012072D
:100486004DC204751600D2AF2002020155E516C30F
:1004960094405007E516D394005009E516D39440CE
:1004A60050020155751600015575C7AA75C75553F3
:0D04B6009FFD75C7AA75C755439F8080FE46
:0104C3002216
:0300000002078D67
:10078D007800E4F6D8FD9000007FFF7E01E4F0A331
:0A079D00DFFCDEFA758190020026F1
:1006ED00E8600FECC313FCED13FDEE13FEEF13FFEB
:0306FD00D8F1220F
:10070000D083D082F8E4937012740193700DA3A388
:1007100093F8740193F5828883E47374029368609C
:06072000EFA3A3A380DF9C
:00000001FF
