:0B04A700011600021700000210000008
:1003A700E4F50EF50DF50CF50BF50FAF0F74002FF7
:1003B700F582E43400F583E0FFE4FCFDFEE50E2F53
:1003C700F50EEE350DF50DED350CF50CEC350BF5A1
:1003D7000B050FE50FB440D3E50EFF900040EFF09B
:1003E700AF0EAE0DAD0CAC0B780812000EA3EFF0FC
:1003F700900004E004900044F0900005E090004570
:0C040700F0900044E07004A3E004F02238
:10048800E4F50FC299AF0F74402FF582E43400F5FC
:0F04980083E0F5993099FD050FE50FB440E5229B
:03002300020413C1
:10041300C0E0C083C082C0D075D000C0073098133D
:10042300AF16051674002FF582E43400F583E599C1
:10043300F0C298309902C299E516B40105C202755B
:100443000A5AE516B4400FD204750A00C2027516A3
:1004530000A290B39290D007D0D0D082D083D0E0C6
:010463003266
:03000B0002046488
:10046400C0E0E50945086010E509150970021508A2
:10047400E50945087002D201E50A6005D50A02D2F1
:0404840002D0E03290
:10002600E4F5B1F5B2F5B3F5B4F5B5F5B6F5ACF55D
:10003600AD759852438922438780438E1053C4DF9F
:10004600758DF4D28EF58AF58CD28C43B71075A8CF
:1000560092C201750813750988C20320040241D6AD
:10006600C2AFA291B39291200302211C750F0875AD
:10007600AF21AF18EFF5A6E517F5A7AF0F74002F60
:10008600F582E43400F583E0F5AE75C7AA75C75569
:1000960043A401E4F5AF75C7AA75C75543A401AFDC
:1000A6000F74002FF582E43400F583E065AE60023C
:1000B60080FEAF0F74002FF582E43400F583E0FF75
:1000C600E4FCFDFEE5152FF515EE3514F514ED35BA
:1000D60013F513EC3512F5120518E518700205171D
:1000E600E518B51109E517B51004C203800A050F16
:1000F600E50F6440600201751203A7E515FF900045
:1001060048EFF0AF15AE14AD13AC12780812000E1E
:10011600A3EFF0120488900000E02460607224FED1
:10012600605424FC603524FB700241F924FD600A0A
:1001360024FD6031240D600241CF1203A71204880A
:10014600E4F508F509C20175C7AA75C755439F01AD
:1001560075C7AA75C75543A50141CF1203A79000DD
:1001660048742741CB1203A7E4900048F0745AF074
:10017600E4F0742041CB1203A7900048747FF0A3EB
:1001860074FFF0A3F0A3F0A3F0A3F0A3F0A341CB78
:10019600A2AF9200C2AF75C7AA75C755439F01A209
:1001A6000092AF75AEFF75AF22A2AF9200C2AF75D7
:1001B600C7AA75C75543A501A20092AFE4F517F586
:1001C60018AF18EF75F080A4F5A6E518AE177807F6
:1001D600C333CE33CED8F9EEF5A7A2AF9200C2AFA5
:1001E60075C7AA75C75543A401A20092AF0518E5C5
:1001F6001870020517E5186440451770C4E4F51534
:10020600F514F513F512F517F518F510F51190001C
:100216000CE0751000F511A3E0FEEE4210D2037556
:100226000F1075AF21AF18EFF5A6E517F5A7AF0FBD
:1002360074002FF582E43400F583E0F5AE75C7AAA5
:1002460075C75543A401E4F5AF75C7AA75C75543ED
:10025600A401AF0F74002FF582E43400F583E06546
:10026600AE600280FEAF0F74002FF582E43400F515
:1002760083E0FFE4FCFDFEE5152FF515EE3514F5DC
:1002860014ED3513F513EC3512F5120518E5187053
:10029600020517E518B51109E517B51004C2038064
:1002A6000A050FE50F6440600241281203A7E51511
:1002B600FF900048EFF0AF15AE14AD13AC127808FE
:1002C60012000EA3EFF0120488C204E4F516D2AFB2
:1002D6002001202002020161E516C394405006E584
:1002E6001694005009E516D3944050020161E4F5D6
:1002F60016016175C7AA75C755539FFD75C7AA75BF
:07030600C755439F8080FEF4
:0300000002030DEB
:10030D00787FE4F6D8FD9000007FFF7E01E4F0A336
:0A031D00DFFCDEFA758120020362A6
:10032700020026E493A3F8E493A34003F68001F2C6
:1003370008DFF48029E493A3F85407240CC8C333D7
:10034700C4540F4420C8834004F456800146F6DFA6
:10035700E4800B01020408102040809004A7E47E8B
:10036700019360BCA3FF543F30E509541FFEE4939B
:10037700A360010ECF54C025E060A840B8E493A362
:10038700FAE493A3F8E493A3C8C582C8CAC583CA8D
:10039700F0A3C8C582C8CAC583CADFE9DEE780BE45
:0104B2000049
:10000E00E8600FECC313FCED13FDEE13FEEF13FFD0
:03001E00D8F122F4
:00000001FF
