:060003008E0B8F0C8D0D29
:10000900E4F50EA907E9C394805004E4F980027964
:10001900807D807C02E97A002400FFEA350BF50F28
:100029008F10ED7003EC6403601E851082850F83C9
:10003900E4938D828C83F0050E0DBD00010C051033
:10004900E51070DE050F80DAAB0CA903E9C39480D3
:10005900E95004248080022400FFE43402FCAD0747
:100069008D828C83E50DF08BA6E50BFFF5A775AEA8
:10007900FFA2AF9200C2AF75C7AA75C755439F01CA
:10008900A20092AFA2AF9200C2AF75C7AA75C755B9
:1000990043A501A20092AF75AF22A2AF9200C2AFF1
:1000A90075C7AA75C75543A401A20092AFA903E970
:1000B900C394805004E4F9800279807C027D8089B0
:1000C900A68FA7A2AF9200C2AF75C7AA75C755433D
:1000D9009F01A20092AFA2AF9200C2AF75C7AA75E5
:1000E900C75543A501A20092AF75AF21EDF4700386
:1000F900EC640260238D828C83E0F5AEA2AF92009E
:10010900C2AF75C7AA75C75543A401A20092AF052E
:10011900A60DBD00010C80D4A2AF9200C2AF75C775
:10012900AA75C75553A5FEA20092AFA2AF9200C20D
:0E013900AF75C7AA75C755539FFEA20092AFBF
:010147002295
:04062A008F828E83AA
:03062E00E493FF53
:0106310022A6
:1003A7007F007EC27D017C001205C77D347F027EFF
:1003B700381200037D557F017E471200037D567F6B
:1003C700021200037DAA7F031200037D667F0412D9
:1003D70000037F027E3812062A8F087F047E4712A9
:1003E700062AEF7D00FC7F0312062A7E00ED2FF51B
:0703F7000AEE3CF50980FE4F
:1005C70053B1BF53B2BF53B17F53B27F75985043F6
:1005D7008920438780438E1053C4DFAB07AA06A93F
:1005E70005A8047F407E427D0F7C00120184EF0442
:0705F700F404F58DD28E2201
:1002DD008F148E138D128C1153B1BF53B2BF53B106
:1002ED007F53B27F75985043878053C4F843C42021
:1002FD00AB14AA13A912A8117F407E427D0F7C007A
:10030D00120184C374FF9FFF74FF9EFEE49DFDE404
:10031D009CFC78081202278FC6AB14AA13A912A849
:10032D00117F407E427D0F7C00120184C374FF9FBC
:07033D00FF8FC543C4082235
:070632003098FDAF99C2985A
:01063900229E
:08063A00C2998F993099FD224D
:100344008F188E178D168C1543B10453B2FB53B31B
:10035400BF53B4BF75F85275C4F8AB18AA17A916E1
:10036400A8157F407E427D0F7C00120184C374FF78
:100374009FFF74FF9EFEE49DFDE49CFC780812023E
:10038400278FC6AB18AA17A916A8157F407E427DF1
:100394000F7C00120184C374FF9FFF8FC543C40800
:0303A400D2F92269
:0706420030F8FDAF9AC2F889
:01064900228E
:08064A00C2F98F9A30F9FD227C
:10023A00A2AF9200C2AF75C7AA75C755439F01A264
:10024A000092AF75A630E4F5A775AF04A2AF92008D
:10025A00C2AF75C7AA75C75543A401A20092AF855C
:10026A00AE1B75A631F5A7A2AF9200C2AF75C7AA99
:10027A0075C75543A401A20092AF85AE1CA2AF92E6
:10028A0000C2AF75C7AA75C755539FFEA20092AFA9
:10029A00E51B25E0FFE433FEE51C54017C002FF545
:1002AA001AEC3EF51974F1251AF51A74FF3519F589
:1002BA0019E51A5401F51CE519C313E51A13F51BC0
:1002CA0075C7AA75C755851B8475C7AA75C755858D
:0302DA001C85225E
:1004E6008F248E238D228C21538EF7438901D28C43
:1004F600E4FFFEFDFCAB24AA23A922A821C3120215
:10050600166025758A7E758CFF308DFDC28DE524BB
:1005160024FFF524E52334FFF523E52234FFF522F5
:0B052600E52134FFF52180C8C28C22C3
:100531008F288E278D268C25538EF7438901D28CE7
:10054100E4FFFEFDFCAB28AA27A926A825C31202B9
:10055100166025758ACA758CFA308DFDC28DE52825
:1005610024FFF528E52734FFF527E52634FFF52696
:0B057100E52534FFF52580C8C28C2270
:10057C008F2C8E2B8D2A8C29538EEF438910D28E83
:10058C00E4FFFEFDFCAB2CAA2BA92AA829C312025E
:10059C00166025758BEA758DCB308FFDC28FE52CDF
:1005AC0024FFF52CE52B34FFF52BE52A34FFF52A37
:0B05BC00E52934FFF52980C8C28E221B
:1003FE008F308E2F8D2E8C2D53C9BF53C9DF43C91D
:10040E0010D2CAE4FFFEFDFCAB30AA2FA92EA82DF8
:10041E00C3120216602575CC3075CDF830CFFDC2F3
:10042E00CFE53024FFF530E52F34FFF52FE52E34E0
:0E043E00FFF52EE52D34FFF52D80C8C2CA2231
:10044C008F348E338D328C3175C40743C408E4FF6E
:10045C00FEFDFCAB34AA33A932A831C312021660DC
:10046C002875C52C75C6CFE5C430E4FB53C4EFE545
:10047C003424FFF534E53334FFF533E53234FFF53E
:0D048C0032E53134FFF53180C553C4F7224D
:100499008F388E378D368C3575C40243C408E4FF16
:1004A900FEFDFCAB38AA37A936A835C3120216607F
:1004B9002875C5D875C6FFE5C430E4FB53C4EFE51C
:1004C9003824FFF538E53734FFF537E53634FFF5DD
:0D04D90036E53534FFF53580C553C4F722F4
:030000000205FEF8
:1005FE0075C7AA75C75575FD5A75C7AA75C75575BE
:10060E00FDA5787FE4F6D8FD9000007FFF7E03E421
:0C061E00F0A3DFFCDEFA7581380203A7B0
:1001480075F008758200EF2FFFEE33FECD33CDCC6E
:1001580033CCC58233C5829BED9AEC99E5829840F1
:100168000CF582EE9BFEED9AFDEC99FC0FD5F0D6CE
:10017800E4CEFBE4CDFAE4CCF9A88222B800C1B9F8
:100188000059BA002DEC8BF084CFCECDFCE5F0CB36
:10019800F97818EF2FFFEE33FEED33FDEC33FCEB6F
:1001A80033FB10D703994004EB99FB0FD8E5E4F92A
:1001B800FA227818EF2FFFEE33FEED33FDEC33FC17
:1001C800C933C910D7059BE99A4007EC9BFCE99A0B
:1001D800F90FD8E0E4C9FAE4CCFB2275F010EF2F50
:1001E800FFEE33FEED33FDCC33CCC833C810D70750
:1001F8009BEC9AE899400AED9BFDEC9AFCE899F88B
:0E0208000FD5F0DAE4CDFBE4CCFAE4C8F9221D
:10021600EB9FF5F0EA9E42F0E99D42F0E89C45F03E
:0102260022B5
:10022700E8600FECC313FCED13FDEE13FEEF13FFB5
:03023700D8F122D9
:00000001FF
