:0603250075BE0DD2C622D8
:02032B0080FE52
:020003008F0864
:10000500D2C5C2C330C3FDE5BD6408600312032B2E
:10001500C2C575BCA4C2C330C3FDE5BD6418600389
:1000250012032BE4F5BCC2C330C3FDE5BD642860F3
:100035000312032BE4F5BCC2C330C3FDE5BD642840
:10004500600312032BE4F50CF50BF50AF509E47FC3
:1000550020FEFDFCAB0CAA0BA90AA809C3120314C8
:10006500502B8508BCC2C330C3FDE5BD64286003C1
:1000750012032B6308FFE50C2401F50CE4350BF5A1
:100085000BE4350AF50AE43509F50980C1D2C4C285
:10009500C3D2C5C2C330C3FDE5BD64086003120306
:1000A5002BC2C575BCA4C2C330C3FDE5BDB418DD04
:1000B500D2C4C2C320C4FDD2C5C2C330C3FDE5BD91
:1000C5006408600312032B75BCA4C2C5C2C330C348
:1000D500FDE5BD6418600312032BE4F5BCC2C33013
:1000E500C3FDE5BD6428600312032BE4F5BCC2C360
:1000F50030C3FDE5BD6428600312032BD2C5C2C31E
:1001050030C3FDE5BD6410600312032BC2C575BC89
:10011500A5C2C330C3FDE5BD6440600312032BE4F3
:10012500F50CF50BF50AF509E47F1FFEFDFCAB0C9C
:10013500AA0BA90AA809C31203145033D2C2C2C319
:1001450030C3FDE5BD6450600312032BE5BC6508B3
:10015500600312032B6308FFE50C2401F50CE4355D
:100165000BF50BE4350AF50AE43509F50980B9C242
:10017500C2C2C330C3FDE5BD6458600312032BD270
:06018500C4C2C320C4FD4A
:01018B002251
:1002DE00E4F5B1F5B1F5B3F5B4F5ACF5AD12032512
:0C02EE007F55120003E4F580F5B080FE9F
:1002BD00538EF7438901D28CEF4E6012758A7E758D
:1002CD008CFF308DFDC28DEF1F70ED1E80EAC28C4C
:0102DD0022FE
:100227008F108E0F8D0E8C0D538EF7438901D28C54
:10023700E4FFFEFDFCAB10AA0FA90EA80DC3120325
:10024700146025758ACA758CFA308DFDC28DE5104C
:1002570024FFF510E50F34FFF50FE50E34FFF50E1B
:0B026700E50D34FFF50D80C8C28C22AD
:100272008F148E138D128C11538EEF438910D28EF0
:10028200E4FFFEFDFCAB14AA13A912A811C31203CA
:10029200146025758BEA758DCB308FFDC28FE51406
:1002A20024FFF514E51334FFF513E51234FFF512BC
:0B02B200E51134FFF51180C8C28E2258
:10018C008F188E178D168C1553C9BF53C9DF43C9F1
:10019C0010D2CAE4FFFEFDFCAB18AA17A916A815CD
:1001AC00C3120314602575CC3075CDF830CFFDC269
:1001BC00CFE51824FFF518E51734FFF517E51634CD
:0E01CC00FFF516E51534FFF51580C8C2CA22EE
:1001DA008F1C8E1B8D1A8C1975C40743C408E4FF43
:1001EA00FEFDFCAB1CAA1BA91AA819C312031460B2
:1001FA002875C53C75C6F6E5C430E4FB53C4EFE583
:10020A001C24FFF51CE51B34FFF51BE51A34FFF52A
:0D021A001AE51934FFF51980C553C4F72209
:030000000202FAFF
:1002FA00787FE4F6D8FD9000007FFF7E03E4F0A348
:0A030A00DFFCDEFA7581200202DE3E
:10031400EB9FF5F0EA9E42F0E99D42F0E89C45F03F
:0103240022B6
:00000001FF
