:1000B200A2AF9200C2AF75C7AA75C755439F01A2EE
:1000C2000092AF75A604E4F5A775AE0F75AFE1A275
:1000D200AF9200C2AF75C7AA75C75543A504A20067
:1000E20092AFA2AF9200C2AF75C7AA75C75543A41B
:1000F20001A20092AFE59F20E6FBA2AF9200C2AF41
:1001020075C7AA75C75553A5FBA20092AFA2AF92BD
:1001120000C2AF75C7AA75C755539FFEA20092AF22
:0101220022BA
:10000300E4F5B1F5B1F5B3F5B4F5ACF5ADC2927F56
:1000130032FEFDFC120209D2927F327E007D007C0B
:1000230000120209C2927F327E007D007C00120220
:1000330009D2927F327E007D007C0012020975C7CF
:10004300AA75C75575AA07A2AF9200C2AF75C7AA12
:1000530075C75543AA40A20092AFE5AA44BFF46016
:10006300F9D2AFA2AF9200C2AF75C7AA75C7554305
:10007300AA80A20092AFC2927FF47E017D007C0031
:10008300120209D2927FF47E017D007C00120209E4
:10009300C2927FF47E017D007C00120209D2927F1E
:0F00A300F47E017D007C0012020943870280C7B2
:1001BE008F0B8E0A8D098C08538EF7438901D28CD2
:1001CE00E4FFFEFDFCAB0BAA0AA909A808C31202A4
:1001DE00B96025758A7E758CFF308DFDC28DE50B5D
:1001EE0024FFF50BE50A34FFF50AE50934FFF5099E
:0B01FE00E50834FFF50880C8C28C2221
:100209008F1B8E1A8D198C18538EF7438901D28C46
:10021900E4FFFEFDFCAB1BAA1AA919A818C3120218
:10022900B96025758ACA758CFA308DFDC28DE51BBA
:1002390024FFF51BE51A34FFF51AE51934FFF51902
:0B024900E51834FFF51880C8C28C22B5
:100254008F0F8E0E8D0D8C0C538EEF438910D28E22
:10026400E4FFFEFDFCAB0FAA0EA90DA80CC31202FD
:10027400B96025758BEA758DCB308FFDC28FE50F84
:1002840024FFF50FE50E34FFF50EE50D34FFF50DF3
:0B029400E50C34FFF50C80C8C28E2280
:100123008F138E128D118C1053C9BF53C9DF43C96E
:1001330010D2CAE4FFFEFDFCAB13AA12A911A8104A
:10014300C31202B9602575CC3075CDF830CFFDC22E
:10015300CFE51324FFF513E51234FFF512E511344F
:0E016300FFF511E51034FFF51080C8C2CA2266
:100171008F178E168D158C1475C40743C408E4FFC0
:10018100FEFDFCAB17AA16A915A814C31202B9608B
:100191002875C52C75C6CFE5C430E4FB53C4EFE523
:1001A1001724FFF517E51634FFF516E51534FFF5AD
:0D01B10015E51434FFF51480C553C4F72282
:0300000002029F5A
:10029F00787FE4F6D8FD9000007FFF7E03E4F0A3A3
:0A02AF00DFFCDEFA75812002000377
:1002B900EB9FF5F0EA9E42F0E99D42F0E89C45F09B
:0102C9002212
:00000001FF
