:10078A000A204144432076616C7565203D2030780B
:04079A00256278005C
:03005B000200564A
:03005600C2EF32C4
:1006C40012079E7F007EC27D017C001206FE53E16C
:1006D4007F43E10143E12043E80843B54053B6BFFB
:1006E40043E208D2AED2AFD2EE4387017BFF7A0752
:0A06F400798A85C30B1200C080E96B
:1006FE00759852438920438780438E1053C4DFABD5
:10070E0007AA06A905A8047F007E187D157C001295
:0A071E0003F6EFF404F58DD28E22ED
:10053A008F1F8E1E8D1D8C1C75985243878053C445
:10054A00F843C420AB1FAA1EA91DA81C7F007E1851
:10055A007D157C001203F6C3E49FFFE49EFE74013E
:10056A009DFDE49CFC78081204998FC6AB1FAA1E55
:10057A00A91DA81C7F007E187D157C001203F6C3F6
:09058A00E49FFF8FC543C4082261
:0707B0003098FDAF99C298DB
:0107B700221F
:0807B800C2998F993099FD22CE
:100003008F258E248D238C2275F85253C4F8AB258B
:10001300AA24A923A8227F007E187D157C00120341
:10002300F6C3E49FFFE49EFE74019DFDE49CFC780F
:10003300081204998FC6AB25AA24A923A8227F00FE
:100043007E187D157C001203F6C3E49FFF8FC54322
:03005300C40822BC
:0707C00030F8FDAF9AC2F80A
:0107C700220F
:0807C800C2F98F9A30F9FD22FD
:10079E00E4F5B1F5B2F5B3F5B4F5B5F5B6F5ACF5DE
:0207AE00AD227A
:10074F00538EF7438901D28CEF4E6012758AEE7586
:10075F008CFF308DFDC28DEF1F70ED1E80EAC28CB5
:01076F002267
:10062E008F298E288D278C26538EF7438901D28CE5
:10063E00E4FFFEFDFCAB29AA28A927A826C31204B5
:10064E00886025758ACD758CF8308DFDC28DE529B3
:10065E0024FFF529E52834FFF528E52734FFF52793
:0B066E00E52634FFF52680C8C28C2270
:100679008F2D8E2C8D2B8C2A538EEF438910D28E81
:10068900E4FFFEFDFCAB2DAA2CA92BA82AC312045A
:10069900886025758BCD758DF8308FFDC28FE52D5E
:1006A90024FFF52DE52C34FFF52CE52B34FFF52B34
:0B06B900E52A34FFF52A80C8C28E221B
:100593008F318E308D2F8C2E53C9BF53C9DF43C982
:1005A30010D2CAE4FFFEFDFCAB31AA30A92FA82E5E
:1005B300C3120488602575CC6675CDEA30CFFDC2C1
:1005C300CFE53124FFF531E53034FFF530E52F3445
:0E05D300FFF52FE52E34FFF52E80C8C2CA2298
:1005E1008F358E348D338C3275C40243C408E4FFD9
:1005F100FEFDFCAB35AA34A933A832C312048860CE
:100601002875C56675C6EAE5C430E4FB53C4EFE559
:100611003524FFF535E53434FFF534E53334FFF5A2
:0D06210033E53234FFF53280C553C4F722B3
:0300000002077084
:10077000787FE4F6D8FD9000007FFF7E01E4F0A3CF
:0A078000DFFCDEFA7581350206C4C5
:1003BA0075F008758200EF2FFFEE33FECD33CDCCFA
:1003CA0033CCC58233C5829BED9AEC99E58298407D
:1003DA000CF582EE9BFEED9AFDEC99FC0FD5F0D65A
:1003EA00E4CEFBE4CDFAE4CCF9A88222B800C1B984
:1003FA000059BA002DEC8BF084CFCECDFCE5F0CBC2
:10040A00F97818EF2FFFEE33FEED33FDEC33FCEBFA
:10041A0033FB10D703994004EB99FB0FD8E5E4F9B5
:10042A00FA227818EF2FFFEE33FEED33FDEC33FCA2
:10043A00C933C910D7059BE99A4007EC9BFCE99A96
:10044A00F90FD8E0E4C9FAE4CCFB2275F010EF2FDB
:10045A00FFEE33FEED33FDCC33CCC833C810D707DB
:10046A009BEC9AE899400AED9BFDEC9AFCE899F816
:0E047A000FD5F0DAE4CDFBE4CCFAE4C8F922A9
:10048800EB9FF5F0EA9E42F0E99D42F0E89C45F0CA
:010498002241
:10049900E8600FECC313FCED13FDEE13FEEF13FF41
:0304A900D8F12265
:10005E00E517240BF8E60517227808300702780B0F
:10006E00E475F0011205040204AC2000EB7F2ED2E1
:10007E00008018EF540F2490D43440D4FF30040B7A
:10008E00EF24BFB41A0050032461FFE51860021577
:10009E0018051BE51B7002051A30070D7808E4756C
:1000AE00F001120504EF0204F20207287403D207CE
:1000BE008003E4C207F5178B088A09890AE4F5184C
:1000CE00F51AF51BE51860077F2012009980F5756B
:1000DE0019FFC201C200C202C203C205C206C20893
:1000EE00120067FF700D3007057F001200AAAF1BCC
:1000FE00AE1A22B4255FC2D5C204120067FF24D007
:10010E00B40A00501A75F00A781830D50508B6FFF3
:10011E000106C6A426F620D5047002D20380D92487
:10012E00CFB41A00EF5004C2E5D2040202AAD201E3
:10013E0080C6D20080C0D20280BCD2D580BAD20591
:10014E0080B47F201200992002077401B518004078
:10015E00F112005EFF1200990200D2D208D2068080
:10016E009512005EFB12005EFA12005EF94A4B70A9
:10017E0006797B7A037BFF20022EE518602A7E002B
:10018E008E827583001204C560060EEE651970F03E
:10019E00C2D5EBC0E0EAC0E0E9C0E0EE1202F1D059
:1001AE00E0F9D0E0FAD0E0FB1204ACFF60AAEBC09D
:1001BE00E0EAC0E0E9C0E0120099D0E02401F9D0F5
:1001CE00E03400FAD0E0FBE5190460DCD519D980E3
:1001DE00877BFF7A0279EDD202809C7910800279BA
:1001EE0008C206C2088008D2D5790A8004790AC2EC
:1001FE00D5E519047002F519E4FAFDFEFF12005E52
:10020E00FC7B0820011312005EFD7B1030000A12E9
:10021E00005EFE12005EFF7B20EC3382D592D5503D
:10022E0013C3E43000069FFFE49EFEE42001039D0D
:10023E00FDE49CFCE4CBF8C201EC700CCFCECDCC2F
:10024E00E824F8F870F38017C3EF33FFEE33FEEDBA
:10025E0033FDEC33FCEB33FB994002FB0FD8E9EB9B
:10026E00300105F8D0E0C448B201C0E00AEC4D4EB2
:10027E004F78207B0070C2EAB5190040BCC0E01276
:10028E0002F3D0F0D0E0200104C4C0E0C4B201C03B
:10029E00F0120082D0F0D5F0EB0200D2120514015C
:1002AE006F5301E95801404C013C4201ED4F01F5FD
:0F02BE004401F54901554301FB5501DF4601DFBE
:1002CD004501DF47039B5001442D01482E016B2B47
:1002DD00014C2301692003842A01044800000163B5
:1002ED003F3F3F00790AA2D5200314300509B9100C
:1002FD00020404B9080104A2D5200602500104200D
:10030D0002689202B518005034C0E07F2030031906
:10031D007F30A20272067205500F12034AC202C24A
:10032D0006C205C2087F30800F300503E9C0E01218
:10033D000099300503D0E0F9D0E0B518CC300517A1
:10034D007F30B9100C1200997F583004077F7880E8
:10035D0003B908031200993002057F2D0200997F21
:10036D00202008F87F2B2006F322920280CF286EE2
:10037D00756C6C2900D20112005E3001F8C2017853
:10038D001830D50108F60201042D504349581200CA
:10039D005E2403B405004001E49003969312008A95
:0D03AD00743A12008AD2037518040201E9A7
:1004AC00BB010689828A83E0225002E722BBFE024E
:0904BC00E32289828A83E4932281
:1004C500BB010CE58229F582E5833AF583E02250EC
:1004D50006E92582F8E622BBFE06E92582F8E22236
:0D04E500E58229F582E5833AF583E4932250
:1004F200BB010689828A83F0225002F722BBFE01E9
:02050200F322E2
:10050400FAE6FB0808E6F925F0F618E6CA3AF622F8
:10051400D083D082F8E4937012740193700DA3A376
:1005240093F8740193F5828883E47374029368608A
:06053400EFA3A3A380DF8A
:10072800EFB40A07740D120733740A309811A899A8
:10073800B8130CC2983098FDA899C298B811F63031
:0707480099FDC299F5992209
:00000001FF
