:03002D000143008C
:0300330002029D29
:10029D00C0E0C083C082C0D075D000C000C007AF21
:1002AD00BDEF12012802D40003106002D86802DCF1
:1002BD008002F2880310A00300A80302B80310C047
:1002CD000310C800000312D2C4803AC28280FE74AB
:1002DD00212543F8A6BC0543E543B42204C2C280E0
:1002ED0024D2C2802074212543F8A6BC754300D2C8
:1002FD00C28012800074212543F8E6F5BC0543D277
:10030D00C28002D2C2C2C3D007D000D0D0D082D01A
:04031D0083D0E03277
:1005B40053B3F753B4F753B3EF53B4EFD294D29386
:1005C400A2AF920075C7AA75C75575910143B24091
:1005D40075C7AA75C755E4F591A20092AF439B0174
:0A05E400D2AF75C1A4D2C6D2C22264
:10000300E4F5B1F5B2F5B3F5B4F5ACF5AD1205B45D
:0200130080FE6D
:1005EE0053B1BF53B2BF53B17F53B27F75985043CF
:1005FE008920438780438E1053C4DFAB07AA06A918
:10060E0005A8047F407E427D0F7C00120072EF042D
:07061E00F404F58DD28E22D9
:100321008F0B8E0A8D098C0853B1BF53B2BF53B1E5
:100331007F53B27F75985043878053C4F843C420DC
:10034100AB0BAA0AA909A8087F407E427D0F7C0059
:10035100120072C374FF9FFF74FF9EFEE49DFDE4D3
:100361009CFC78081201158FC6AB0BAA0AA909A833
:10037100087F407E427D0F7C00120072C374FF9F94
:07038100FF8FC543C40822F1
:070015003098FDAF99C2987D
:01001C0022C1
:08001D00C2998F993099FD2270
:100388008F0F8E0E8D0D8C0C43B10453B2FB53B3FB
:10039800BF53B4BF75F85275C4F8AB0FAA0EA90DB8
:1003A800A80C7F407E427D0F7C00120072C374FF50
:1003B8009FFF74FF9EFEE49DFDE49CFC78081201FB
:1003C800158FC6AB0FAA0EA90DA80C7F407E427DE3
:1003D8000F7C00120072C374FF9FFF8FC543C408CF
:0303E800D2F92225
:0700250030F8FDAF9AC2F8AC
:01002C0022B1
:08062500C2F98F9A30F9FD22A1
:1001FA00A2AF9200C2AF75C7AA75C755439F01A2A5
:10020A000092AF75A630E4F5A775AF04A2AF9200CD
:10021A00C2AF75C7AA75C75543A401A20092AF859C
:10022A00AE1275A631F5A7A2AF9200C2AF75C7AAE2
:10023A0075C75543A401A20092AF85AE13A2AF922F
:10024A0000C2AF75C7AA75C755539FFEA20092AFE9
:10025A00E51225E0FFE433FEE51354017C002FF597
:10026A0011EC3EF51074F12511F51174FF3510F5F6
:10027A0010E5115401F513E510C313E51113F51236
:10028A0075C7AA75C75585128475C7AA75C75585D6
:03029A00138522A7
:1004D3008F178E168D158C14538EF7438901D28C8A
:1004E300E4FFFEFDFCAB17AA16A915A814C312015D
:1004F300046025758A7E758CFF308DFDC28DE517EE
:1005030024FFF517E51634FFF516E51534FFF51549
:0B051300E51434FFF51480C8C28C22F0
:10051E008F1B8E1A8D198C18538EF7438901D28C2E
:10052E00E4FFFEFDFCAB1BAA1AA919A818C3120101
:10053E00046025758ACA758CFA308DFDC28DE51B57
:10054E0024FFF51BE51A34FFF51AE51934FFF519EA
:0B055E00E51834FFF51880C8C28C229D
:100569008F1F8E1E8D1D8C1C538EEF438910D28ECA
:10057900E4FFFEFDFCAB1FAA1EA91DA81CC31201A6
:10058900046025758BEA758DCB308FFDC28FE51F11
:1005990024FFF51FE51E34FFF51EE51D34FFF51D8B
:0B05A900E51C34FFF51C80C8C28E2248
:1003EB008F478E468D458C4453C9BF53C9DF43C9D4
:1003FB0010D2CAE4FFFEFDFCAB47AA46A945A844B0
:10040B00C3120104602575CC3075CDF830CFFDC219
:10041B00CFE54724FFF547E54634FFF546E5453480
:0E042B00FFF545E54434FFF54480C8C2CA22FF
:100439008F4B8E4A8D498C4875C40743C408E4FF25
:10044900FEFDFCAB4BAA4AA949A848C312010460A6
:100459002875C52C75C6CFE5C430E4FB53C4EFE558
:100469004B24FFF54BE54A34FFF54AE54934FFF5DE
:0D04790049E54834FFF54880C553C4F7221B
:100486008F4F8E4E8D4D8C4C75C40243C408E4FFCD
:10049600FEFDFCAB4FAA4EA94DA84CC31201046049
:1004A6002875C5D875C6FFE5C430E4FB53C4EFE52F
:1004B6004F24FFF54FE54E34FFF54EE54D34FFF57D
:0D04C6004DE54C34FFF54C80C553C4F722C2
:0300000002014EAC
:10014E0075C7AA75C75575FD5A75C7AA75C7557572
:10015E00FDA5787FE4F6D8FD9000007FFF7E03E4D6
:0C016E00F0A3DFFCDEFA75814F0201B542
:10017A00020003E493A3F8E493A34003F68001F298
:10018A0008DFF48029E493A3F85407240CC8C33386
:10019A00C4540F4420C8834004F456800146F6DF55
:1001AA00E4800B010204081020408090002DE47EB8
:1001BA00019360BCA3FF543F30E509541FFEE4934A
:1001CA00A360010ECF54C025E060A840B8E493A311
:1001DA00FAE493A3F8E493A3C8C582C8CAC583CA3C
:1001EA00F0A3C8C582C8CAC583CADFE9DEE780BEF4
:0100300000CF
:1000360075F008758200EF2FFFEE33FECD33CDCC81
:1000460033CCC58233C5829BED9AEC99E582984004
:100056000CF582EE9BFEED9AFDEC99FC0FD5F0D6E1
:10006600E4CEFBE4CDFAE4CCF9A88222B800C1B90B
:100076000059BA002DEC8BF084CFCECDFCE5F0CB49
:10008600F97818EF2FFFEE33FEED33FDEC33FCEB82
:1000960033FB10D703994004EB99FB0FD8E5E4F93D
:1000A600FA227818EF2FFFEE33FEED33FDEC33FC2A
:1000B600C933C910D7059BE99A4007EC9BFCE99A1E
:1000C600F90FD8E0E4C9FAE4CCFB2275F010EF2F63
:1000D600FFEE33FEED33FDCC33CCC833C810D70763
:1000E6009BEC9AE899400AED9BFDEC9AFCE899F89E
:0E00F6000FD5F0DAE4CDFBE4CCFAE4C8F92231
:10010400EB9FF5F0EA9E42F0E99D42F0E89C45F051
:0101140022C8
:10011500E8600FECC313FCED13FDEE13FEEF13FFC8
:03012500D8F122EC
:10012800D083D082F8E4937012740193700DA3A366
:1001380093F8740193F5828883E47374029368607A
:06014800EFA3A3A380DF7A
:00000001FF
