:1000F500E4F5B1F5B1F5B3F5B4F5ACF5AD438E0264
:10010500D2B030B01CC2927FC87E007D007C001248
:100115000387D2927FC87E007D007C001203878012
:10012500E1A2AF9200C2AF75C7AA75C75543960441
:10013500A20092AFA2AF9200C2AF75C7AA75C7550C
:100145005396FDA20092AFE59720E0FBA2AF920087
:10015500C2AF75C7AA75C7555397DFA20092AFC244
:0A01650092C280D292D28080F6226E
:10033C008F0B8E0A8D098C08538EF7438901D28C52
:10034C00E4FFFEFDFCAB0BAA0AA909A808C3120026
:10035C00D16025758A7E758CFF308DFDC28DE50BC5
:10036C0024FFF50BE50A34FFF50AE50934FFF5091E
:0B037C00E50834FFF50880C8C28C22A1
:100387008F288E278D268C25538EF7438901D28C93
:10039700E4FFFEFDFCAB28AA27A926A825C3120067
:1003A700D16025758ACA758CFA308DFDC28DE52816
:1003B70024FFF528E52734FFF527E52634FFF52642
:0B03C700E52534FFF52580C8C28C221C
:1003D2008F0F8E0E8D0D8C0C538EEF438910D28EA3
:1003E200E4FFFEFDFCAB0FAA0EA90DA80CC3120080
:1003F200D16025758BEA758DCB308FFDC28FE50FED
:1004020024FFF50FE50E34FFF50EE50D34FFF50D73
:0B041200E50C34FFF50C80C8C28E2200
:100254008F138E128D118C1053C9BF53C9DF43C93C
:1002640010D2CAE4FFFEFDFCAB13AA12A911A81018
:10027400C31200D1602575CC3075CDF830CFFDC2E6
:10028400CFE51324FFF513E51234FFF512E511341D
:0E029400FFF511E51034FFF51080C8C2CA2234
:1002A2008F178E168D158C1475C40743C408E4FF8E
:1002B200FEFDFCAB17AA16A915A814C31200D16043
:1002C2002875C52C75C6CFE5C430E4FB53C4EFE5F1
:1002D2001724FFF517E51634FFF516E51534FFF57B
:0D02E20015E51434FFF51480C553C4F72250
:1002EF008F1B8E1A8D198C1875C40743C408E4FF31
:1002FF00FEFDFCAB1BAA1AA919A818C31200D160E6
:10030F002875C5D875C6FFE5C430E4FB53C4EFE5C7
:10031F001B24FFF51BE51A34FFF51AE51934FFF519
:0D032F0019E51834FFF51880C553C4F722F6
:10041D0053B1BF53B2BF53B17F53B27F75985043A1
:10042D008920438780438E1053C4DFAB07AA06A9EA
:10043D0005A8047F407E427D0F7C0012003FEF0433
:09044D00F404F58DD28ED299223F
:10016F008F1F8E1E8D1D8C1C53B1BF53B2BF53B149
:10017F007F53B27F75985043878053C4F843C42090
:10018F00AB1FAA1EA91DA81C7F407E427D0F7C00BD
:10019F0012003FC374FF9FFF74FF9EFEE49DFDE4BA
:1001AF009CFC78081200E28FC6AB1FAA1EA91DA8DF
:1001BF001C7F407E427D0F7C0012003FC374FF9F67
:1001CF00FF74FF9EFEE49DFDE49CFCEFE48FC543AE
:0501DF00C408D29922C2
:070482003098FDAF99C2980C
:010489002250
:08048A00C2998F993099FD22FF
:1001E4008F248E238D228C2153B1FB53B2FB53B346
:1001F400BF53B4BF75F85075C40853C4DFAB24AA09
:1002040023A922A8217F407E427D0F7C0012003F5B
:10021400C374FF9FFF74FF9EFEE49DFDE49CFC7885
:10022400081200E28FC6AB24AA23A922A8217F408A
:100234007E427D0F7C0012003FC374FF9FFF74FF5A
:100244009EFEE49DFDE49CFCEFE48FC543C40822BC
:0704920030F8FDAF9AC2F83B
:010499002240
:08049A00C2F98F9A30F9FD222E
:03000000020456A1
:1004560075C7AA75C75575FD5A75C7AA75C7557567
:10046600FDA5787FE4F6D8FD9000007FFF7E03E4CB
:0C047600F0A3DFFCDEFA7581280200F51F
:1000030075F008758200EF2FFFEE33FECD33CDCCB4
:1000130033CCC58233C5829BED9AEC99E582984037
:100023000CF582EE9BFEED9AFDEC99FC0FD5F0D614
:10003300E4CEFBE4CDFAE4CCF9A88222B800C1B93E
:100043000059BA002DEC8BF084CFCECDFCE5F0CB7C
:10005300F97818EF2FFFEE33FEED33FDEC33FCEBB5
:1000630033FB10D703994004EB99FB0FD8E5E4F970
:10007300FA227818EF2FFFEE33FEED33FDEC33FC5D
:10008300C933C910D7059BE99A4007EC9BFCE99A51
:10009300F90FD8E0E4C9FAE4CCFB2275F010EF2F96
:1000A300FFEE33FEED33FDCC33CCC833C810D70796
:1000B3009BEC9AE899400AED9BFDEC9AFCE899F8D1
:0E00C3000FD5F0DAE4CDFBE4CCFAE4C8F92264
:1000D100EB9FF5F0EA9E42F0E99D42F0E89C45F085
:0100E10022FC
:1000E200E8600FECC313FCED13FDEE13FEEF13FFFC
:0300F200D8F12220
:00000001FF
