:100049000A2056616C7565203D203078256278005C
:03005B000200039D
:10000300C0E0C0F0C083C082C0D075D000C000C0C3
:1000130001C002C003C004C005C006C007C2EF7B15
:10002300FF7A00794985C30B1200C0D007D006D0F0
:1000330005D004D003D002D001D000D0D0D082D0DC
:0600430083D0F0D0E03292
:1005F600E4F5B1F5B1F5B3F5B4F5ACF5ADFF7EC2F2
:100606007D01FC12063053E8F043B38053B47FE417
:10061600F5F643F60143E10143E83053E1F343E1E4
:0A0626000253E1BFD2AED2AF80FE56
:1006300053B1BF53B2BF53B17F53B27F759850438C
:100640008920438780438E1053C4DFAB07AA06A9D5
:1006500005A8047F407E427D0F7C001203F6EF0464
:09066000F404F58DD28ED299222A
:100529008F1F8E1E8D1D8C1C53B1BF53B2BF53B18B
:100539007F53B27F75985043878053C4F843C420D2
:10054900AB1FAA1EA91DA81C7F407E427D0F7C00FF
:100559001203F6C374FF9FFF74FF9EFEE49DFDE442
:100569009CFC78081204888FC6AB1FAA1EA91DA877
:100579001C7F407E427D0F7C001203F6C374FF9FEF
:09058900FF8FC543C408D299227A
:0706BC003098FDAF99C298D0
:0106C3002214
:0806C400C2998F993099FD22C3
:100592008F258E248D238C2253B1FB53B2FB53B390
:1005A200BF53B4BF75F85075C40853C4DFAB25AA56
:1005B20024A923A8227F407E427D0F7C001203F6ED
:1005C200C374FF9FFF74FF9EFEE49DFDE49CFC78D4
:1005D200081204888FC6AB25AA24A923A8227F402B
:1005E2007E427D0F7C001203F6C374FF9FFF8FC50E
:0405F20043C40822D4
:0706CC0030F8FDAF9AC2F8FF
:0106D3002204
:0806D400C2F98F9A30F9FD22F2
:030000000206698C
:1006690075C7AA75C75575FD5A75C7AA75C7557552
:10067900FDA5787FE4F6D8FD9000007FFF7E03E4B6
:0C068900F0A3DFFCDEFA7581250205F607
:1003BA0075F008758200EF2FFFEE33FECD33CDCCFA
:1003CA0033CCC58233C5829BED9AEC99E58298407D
:1003DA000CF582EE9BFEED9AFDEC99FC0FD5F0D65A
:1003EA00E4CEFBE4CDFAE4CCF9A88222B800C1B984
:1003FA000059BA002DEC8BF084CFCECDFCE5F0CBC2
:10040A00F97818EF2FFFEE33FEED33FDEC33FCEBFA
:10041A0033FB10D703994004EB99FB0FD8E5E4F9B5
:10042A00FA227818EF2FFFEE33FEED33FDEC33FCA2
:10043A00C933C910D7059BE99A4007EC9BFCE99A96
:10044A00F90FD8E0E4C9FAE4CCFB2275F010EF2FDB
:10045A00FFEE33FEED33FDCC33CCC833C810D707DB
:10046A009BEC9AE899400AED9BFDEC9AFCE899F816
:0E047A000FD5F0DAE4CDFBE4CCFAE4C8F922A9
:10048800E8600FECC313FCED13FDEE13FEEF13FF52
:03049800D8F12276
:10005E00E517240BF8E60517227808300702780B0F
:10006E00E475F0011204F302049B2000EB7F2ED204
:10007E00008018EF540F2490D43440D4FF30040B7A
:10008E00EF24BFB41A0050032461FFE51860021577
:10009E0018051BE51B7002051A30070D7808E4756C
:1000AE00F0011204F3EF0204E10206957403D20785
:1000BE008003E4C207F5178B088A09890AE4F5184C
:1000CE00F51AF51BE51860077F2012009980F5756B
:1000DE0019FFC201C200C202C203C205C206C20893
:1000EE00120067FF700D3007057F001200AAAF1BCC
:1000FE00AE1A22B4255FC2D5C204120067FF24D007
:10010E00B40A00501A75F00A781830D50508B6FFF3
:10011E000106C6A426F620D5047002D20380D92487
:10012E00CFB41A00EF5004C2E5D2040202AAD201E3
:10013E0080C6D20080C0D20280BCD2D580BAD20591
:10014E0080B47F201200992002077401B518004078
:10015E00F112005EFF1200990200D2D208D2068080
:10016E009512005EFB12005EFA12005EF94A4B70A9
:10017E0006797B7A037BFF20022EE518602A7E002B
:10018E008E827583001204B460060EEE651970F04F
:10019E00C2D5EBC0E0EAC0E0E9C0E0EE1202F1D059
:1001AE00E0F9D0E0FAD0E0FB12049BFF60AAEBC0AE
:1001BE00E0EAC0E0E9C0E0120099D0E02401F9D0F5
:1001CE00E03400FAD0E0FBE5190460DCD519D980E3
:1001DE00877BFF7A0279EDD202809C7910800279BA
:1001EE0008C206C2088008D2D5790A8004790AC2EC
:1001FE00D5E519047002F519E4FAFDFEFF12005E52
:10020E00FC7B0820011312005EFD7B1030000A12E9
:10021E00005EFE12005EFF7B20EC3382D592D5503D
:10022E0013C3E43000069FFFE49EFEE42001039D0D
:10023E00FDE49CFCE4CBF8C201EC700CCFCECDCC2F
:10024E00E824F8F870F38017C3EF33FFEE33FEEDBA
:10025E0033FDEC33FCEB33FB994002FB0FD8E9EB9B
:10026E00300105F8D0E0C448B201C0E00AEC4D4EB2
:10027E004F78207B0070C2EAB5190040BCC0E01276
:10028E0002F3D0F0D0E0200104C4C0E0C4B201C03B
:10029E00F0120082D0F0D5F0EB0200D2120503016D
:1002AE006F5301E95801404C013C4201ED4F01F5FD
:0F02BE004401F54901554301FB5501DF4601DFBE
:1002CD004501DF47039B5001442D01482E016B2B47
:1002DD00014C2301692003842A01044800000163B5
:1002ED003F3F3F00790AA2D5200314300509B9100C
:1002FD00020404B9080104A2D5200602500104200D
:10030D0002689202B518005034C0E07F2030031906
:10031D007F30A20272067205500F12034AC202C24A
:10032D0006C205C2087F30800F300503E9C0E01218
:10033D000099300503D0E0F9D0E0B518CC300517A1
:10034D007F30B9100C1200997F583004077F7880E8
:10035D0003B908031200993002057F2D0200997F21
:10036D00202008F87F2B2006F322920280CF286EE2
:10037D00756C6C2900D20112005E3001F8C2017853
:10038D001830D50108F60201042D504349581200CA
:10039D005E2403B405004001E49003969312008A95
:0D03AD00743A12008AD2037518040201E9A7
:10049B00BB010689828A83E0225002E722BBFE025F
:0904AB00E32289828A83E4932292
:1004B400BB010CE58229F582E5833AF583E02250FD
:1004C40006E92582F8E622BBFE06E92582F8E22247
:0D04D400E58229F582E5833AF583E4932261
:1004E100BB010689828A83F0225002F722BBFE01FA
:0204F100F322F4
:1004F300FAE6FB0808E6F925F0F618E6CA3AF6220A
:10050300D083D082F8E4937012740193700DA3A387
:1005130093F8740193F5828883E47374029368609B
:06052300EFA3A3A380DF9B
:10069500EFB40A07740D1206A0740A309811A899D0
:1006A500B8130CC2983098FDA899C298B811F630C5
:0706B50099FDC299F599229D
:00000001FF
