:10030600E4F5B1F5B1F5B3F5B4F5ACF5ADFF7EC2E4
:100316007D01FC1200F5438E02C2957F2C7E017D85
:10032600007C001201D5D2957F2C7E017D007C00D9
:0B0336001201D57F551203BB80DF22AF
:10037800538EF7438901D28CEF4E6012758AF3755C
:100388008CFF308DFDC28DEF1F70011E80EAC28C7C
:010398002242
:100270008F0B8E0A8D098C08538EF7438901D28C1F
:10028000E4FFFEFDFCAB0BAA0AA909A808C31200F3
:10029000D16025758ACA758CFA308DFDC28D74FFC8
:1002A000250BF50BE50A34FFF50AE50934FFF509DE
:0B02B000E50834FFF50880C8C28C226E
:1002BB008F0F8E0E8D0D8C0C538EEF438910D28EBB
:1002CB00E4FFFEFDFCAB0FAA0EA90DA80CC3120098
:1002DB00D16025758BCA758DFA308FFDC28F74FF77
:1002EB00250FF50FE50E34FFF50EE50D34FFF50D7B
:0B02FB00E50C34FFF50C80C8C28E2219
:1001D5008F1B8E1A8D198C1853C9BF53C9DF43C99C
:1001E50010D2CAE4FFFEFDFCAB1BAA1AA919A81878
:1001F500C31200D1602575CC6075CDF030CFFDC23E
:10020500CF74FF251BF51BE51A34FFF51AE51934E4
:0E021500FFF519E51834FFF51880C8C2CA229B
:100223008F138E128D118C1075C40243C408E4FF22
:10023300FEFDFCAB13AA12A911A810C31200D160D2
:100243002875C56075C6F0E5C430E4FB53C4EF748C
:10025300FF2513F513E51234FFF512E51134FFF50D
:0D02630011E51034FFF51080C553C4F722DB
:1003410053B1BF53B2BF53B17F53B27F759852437C
:100351008920438780438E1053C4DFAB07AA06A9C7
:1003610005A8047F407E427D0F7C0012003FEF0410
:07037100F404F58DD28E2289
:1000F5008F1B8E1A8D198C1853B1BF53B2BF53B1D4
:100105007F53B27F75985243878053C4F843C42008
:10011500AB1BAA1AA919A8187F407E427D0F7C0047
:1001250012003FC374FF9FFF74FF9EFEE49DFDE434
:100135009CFC78081200E28FC6AB1BAA1AA919A865
:10014500187F407E427D0F7C0012003FC374FF9FE5
:10015500FF74FF9EFEE49DFDE49CFCEFE48FC54328
:03016500C40822A9
:0703B3003098FDAF99C298DC
:0103BA002220
:0803BB00C2998F993099FD22CF
:100168008F178E168D158C1453B1FB53B2FB53B3F6
:10017800BF53B4BF75F85253C4F8AB17AA16A915E4
:10018800A8147F407E427D0F7C0012003FC374FF9D
:100198009FFF74FF9EFEE49DFDE49CFC780812001E
:1001A800E28FC6AB17AA16A915A8147F407E427D18
:1001B8000F7C0012003FC374FF9FFF74FF9EFEE494
:0D01C8009DFDE49CFCEFE48FC543C40822BC
:0703C30030F8FDAF9AC2F80B
:0103CA002210
:0803CB00C2F98F9A30F9FD22FE
:030000000203995F
:10039900787FE4F6D8FD9000007FFF7E03E4F0A3A8
:0A03A900DFFCDEFA75812002030676
:1000030075F008758200EF2FFFEE33FECD33CDCCB4
:1000130033CCC58233C5829BED9AEC99E582984037
:100023000CF582EE9BFEED9AFDEC99FC0FD5F0D614
:10003300E4CEFBE4CDFAE4CCF9A88222B800C1B93E
:100043000059BA002DEC8BF084CFCECDFCE5F0CB7C
:10005300F97818EF2FFFEE33FEED33FDEC33FCEBB5
:1000630033FB10D703994004EB99FB0FD8E5E4F970
:10007300FA227818EF2FFFEE33FEED33FDEC33FC5D
:10008300C933C910D7059BE99A4007EC9BFCE99A51
:10009300F90FD8E0E4C9FAE4CCFB2275F010EF2F96
:1000A300FFEE33FEED33FDCC33CCC833C810D70796
:1000B3009BEC9AE899400AED9BFDEC9AFCE899F8D1
:0E00C3000FD5F0DAE4CDFBE4CCFAE4C8F92264
:1000D100EB9FF5F0EA9E42F0E99D42F0E89C45F085
:0100E10022FC
:1000E200E8600FECC313FCED13FDEE13FEEF13FFFC
:0300F200D8F12220
:00000001FF
