:1006C9000A20544D32204341502030782562580089
:0300630002000395
:10000300C0E0C0F0C083C082C0D075D000C000C0C3
:1000130001C002C003C004C005C006C0075392FE5E
:1000230085E49085E5A0B2927BFF7A0679C985E5E0
:100033000B1200C8C2CFD007D006D005D004D0031E
:10004300D002D001D000D0D0D082D083D0F0D0E085
:01005300327A
:1005FE00E4F5B1F5B1F5B3F5B4F5ACF5ADFF7EC2EA
:10060E007D01FC12053143B10153B2FED28053C8B5
:10061E00FE75C9895393FC43930253F1F043F103E2
:0F062E00439210439410439B04D2CAD2AF80FE74
:10063D0053B1BF53B2BF53B17F53B27F759850437F
:10064D008920438780438E1053C4DFAB07AA06A9C8
:10065D0005A8047F407E427D0F7C001203FEEF044F
:09066D00F404F58DD28ED299221D
:100531008F1F8E1E8D1D8C1C53B1BF53B2BF53B183
:100541007F53B27F75985043878053C4F843C420CA
:10055100AB1FAA1EA91DA81C7F407E427D0F7C00F7
:100561001203FEC374FF9FFF74FF9EFEE49DFDE432
:100571009CFC78081204908FC6AB1FAA1EA91DA867
:100581001C7F407E427D0F7C001203FEC374FF9FDF
:09059100FF8FC543C408D2992272
:070054003098FDAF99C2983E
:01005B002282
:0806D900C2998F993099FD22AE
:10059A008F258E248D238C2253B1FB53B2FB53B388
:1005AA00BF53B4BF75F85075C40853C4DFAB25AA4E
:1005BA0024A923A8227F407E427D0F7C001203FEDD
:1005CA00C374FF9FFF74FF9EFEE49DFDE49CFC78CC
:1005DA00081204908FC6AB25AA24A923A8227F401B
:1005EA007E427D0F7C001203FEC374FF9FFF8FC5FE
:0405FA0043C40822CC
:0706E10030F8FDAF9AC2F8EA
:0106E80022EF
:0806E900C2F98F9A30F9FD22DD
:030000000206767F
:1006760075C7AA75C75575FD5A75C7AA75C7557545
:10068600FDA5787FE4F6D8FD9000007FFF7E03E4A9
:0C069600F0A3DFFCDEFA7581250205FEF2
:1003C20075F008758200EF2FFFEE33FECD33CDCCF2
:1003D20033CCC58233C5829BED9AEC99E582984075
:1003E2000CF582EE9BFEED9AFDEC99FC0FD5F0D652
:1003F200E4CEFBE4CDFAE4CCF9A88222B800C1B97C
:100402000059BA002DEC8BF084CFCECDFCE5F0CBB9
:10041200F97818EF2FFFEE33FEED33FDEC33FCEBF2
:1004220033FB10D703994004EB99FB0FD8E5E4F9AD
:10043200FA227818EF2FFFEE33FEED33FDEC33FC9A
:10044200C933C910D7059BE99A4007EC9BFCE99A8E
:10045200F90FD8E0E4C9FAE4CCFB2275F010EF2FD3
:10046200FFEE33FEED33FDCC33CCC833C810D707D3
:100472009BEC9AE899400AED9BFDEC9AFCE899F80E
:0E0482000FD5F0DAE4CDFBE4CCFAE4C8F922A1
:10049000E8600FECC313FCED13FDEE13FEEF13FF4A
:0304A000D8F1226E
:10006600E517240BF8E60517227808300702780B07
:10007600E475F0011204FB0204A32000EB7F2ED2EC
:10008600008018EF540F2490D43440D4FF30040B72
:10009600EF24BFB41A0050032461FFE5186002156F
:1000A60018051BE51B7002051A30070D7808E47564
:1000B600F0011204FBEF0204E90206A27403D20760
:1000C6008003E4C207F5178B088A09890AE4F51844
:1000D600F51AF51BE51860077F201200A180F5755B
:1000E60019FFC201C200C202C203C205C206C2088B
:1000F60012006FFF700D3007057F001200B2AF1BB4
:10010600AE1A22B4255FC2D5C20412006FFF24D0F6
:10011600B40A00501A75F00A781830D50508B6FFEB
:100126000106C6A426F620D5047002D20380D9247F
:10013600CFB41A00EF5004C2E5D2040202B2D201D3
:1001460080C6D20080C0D20280BCD2D580BAD20589
:1001560080B47F201200A12002077401B518004068
:10016600F1120066FF1200A10200DAD208D2068060
:1001760095120066FB120066FA120066F94A4B7089
:100186000679837A037BFF20022EE518602A7E001B
:100196008E827583001204BC60060EEE651970F03F
:1001A600C2D5EBC0E0EAC0E0E9C0E0EE1202F9D049
:1001B600E0F9D0E0FAD0E0FB1204A3FF60AAEBC09E
:1001C600E0EAC0E0E9C0E01200A1D0E02401F9D0E5
:1001D600E03400FAD0E0FBE5190460DCD519D980DB
:1001E600877BFF7A0279F5D202809C7910800279AA
:1001F60008C206C2088008D2D5790A8004790AC2E4
:10020600D5E519047002F519E4FAFDFEFF12006641
:10021600FC7B08200113120066FD7B1030000A12D9
:100226000066FE120066FF7B20EC3382D592D55025
:1002360013C3E43000069FFFE49EFEE42001039D05
:10024600FDE49CFCE4CBF8C201EC700CCFCECDCC27
:10025600E824F8F870F38017C3EF33FFEE33FEEDB2
:1002660033FDEC33FCEB33FB994002FB0FD8E9EB93
:10027600300105F8D0E0C448B201C0E00AEC4D4EAA
:100286004F78207B0070C2EAB5190040BCC0E0126E
:1002960002FBD0F0D0E0200104C4C0E0C4B201C02B
:1002A600F012008AD0F0D5F0EB0200DA12050B014D
:1002B600775301F15801484C01444201F54F01FDC5
:0F02C6004401FD49015D4302035501E74601E78D
:1002D5004501E74703A350014C2D01502E01732B17
:1002E500015423017120038C2A010C480000016B85
:1002F5003F3F3F00790AA2D5200314300509B91004
:10030500020404B9080104A2D52006025001042004
:1003150002689202B518005034C0E07F20300319FE
:100325007F30A20272067205500F120352C202C23A
:1003350006C205C2087F30800F300503E9C0E01210
:1003450000A1300503D0E0F9D0E0B518CC30051791
:100355007F30B9100C1200A17F583004077F7880D8
:1003650003B908031200A13002057F2D0200A17F09
:10037500202008F87F2B2006F322920280CF286EDA
:10038500756C6C2900D2011200663001F8C2017843
:100395001830D50108F602010C2D504349581200BA
:1003A500662403B405004001E490039E9312009275
:0D03B500743A120092D2037518040201F18F
:1004A300BB010689828A83E0225002E722BBFE0257
:0904B300E32289828A83E493228A
:1004BC00BB010CE58229F582E5833AF583E02250F5
:1004CC0006E92582F8E622BBFE06E92582F8E2223F
:0D04DC00E58229F582E5833AF583E4932259
:1004E900BB010689828A83F0225002F722BBFE01F2
:0204F900F322EC
:1004FB00FAE6FB0808E6F925F0F618E6CA3AF62202
:10050B00D083D082F8E4937012740193700DA3A37F
:10051B0093F8740193F5828883E473740293686093
:06052B00EFA3A3A380DF93
:1006A200EFB40A07740D1206AD740A309811A899B6
:1006B200B8130CC2983098FDA899C298B811F630B8
:0706C20099FDC299F5992290
:00000001FF
