:10042B00C2837F647E007D007C00120366D2837FD3
:0C043B00647E007D007C0012036680E4FB
:1003FC00A2AF9200C2AF75C7AA75C75543A401A29C
:10040C000092AFE59F30E616A2AF9200C2AF75C75F
:0F041C00AA75C755539FBFA20092AF12042B229F
:10000300A2AF9200C2AF75C7AA75C755439F01A29D
:100013000092AF75AEFF75AF22A2AF9200C2AF756B
:10002300C7AA75C75543A501A20092AFE4F508F529
:1000330009E50975F080A4F5A6E509AE087807C3BC
:1000430033CE33CED8F92400EE3438F5A71203FCAF
:100053000509E50970020508C39420E508940040EA
:10006300D0A2AF9200C2AF75C7AA75C75553A5FEFC
:10007300A20092AFA2AF9200C2AF75C7AA75C755CF
:07008300539FFEA20092AFA3
:01008A002253
:1001DB00A2AF9200C2AF75C7AA75C755439F01A2C4
:1001EB000092AFE4F5A675A738F5AFF508F509E46D
:1001FB00F5AE1203FCE5AEF4600312042B05A6E585
:10020B00A6700205A70509E50970020508C3E508F4
:10021B00941040DBA2AF9200C2AF75C7AA75C75549
:07022B00539FFEA20092AFF9
:0102320022A9
:10010B00A2AF9200C2AF75C7AA75C755439F01A294
:10011B000092AFA2AF9200C2AF75C7AA75C7554385
:10012B00A501A20092AFE4F5A675A73875AF21F52E
:10013B0008F50905AE1203FC05A6E5A6700205A796
:10014B000509E50970020508C3E508941040E4A20F
:10015B00AF9200C2AF75C7AA75C75553A5FEA200D3
:10016B0092AFA2AF9200C2AF75C7AA75C755539F86
:05017B00FEA20092AF9E
:01018000225C
:10018100A2AF9200C2AF75C7AA75C755439F01A21E
:100191000092AFE4F5A675A738F5AFF50AF508F5B5
:1001A100091203FCE5AE650A600312042B05A6E5FE
:1001B100A6700205A7050A0509E50970020508C32D
:1001C100E508941040DBA2AF9200C2AF75C7AA75D3
:0901D100C755539FFEA20092AF36
:0101DA002202
:10008B00E4F5B1F5B1F5B3F5B4F5ACF5ADC2927FCE
:10009B0064FEFDFC120366D2927F647E007D007CC1
:1000AB0000120366C2927F647E007D007C00120307
:1000BB0066D2927F647E007D007C00120366120084
:1000CB00031201DB12010B120181C2927F647E00CD
:1000DB007D007C00120366D2927F647E007D007CE3
:1000EB0000120366C2927F647E007D007C001203C7
:1000FB0066D2927F647E007D007C0012036680FED8
:10031B008F128E118D108C0F538EF7438901D28C57
:10032B00E4FFFEFDFCAB12AA11A910A80FC3120427
:10033B00616025758A7E758CFF308DFDC28DE5124F
:10034B0024FFF512E51134FFF511E51034FFF5101C
:0B035B00E50F34FFF50F80C8C28C22B4
:100366008F0E8E0D8D0C8C0B538EF7438901D28C1C
:10037600E4FFFEFDFCAB0EAA0DA90CA80BC31204EC
:10038600616025758ACA758CFA308DFDC28DE50EC1
:1003960024FFF50EE50D34FFF50DE50C34FFF50CE5
:0B03A600E50B34FFF50B80C8C28C2271
:1003B1008F168E158D148C13538EEF438910D28EA8
:1003C100E4FFFEFDFCAB16AA15A914A813C3120481
:1003D100616025758BEA758DCB308FFDC28FE51677
:1003E10024FFF516E51534FFF515E51434FFF51472
:0B03F100E51334FFF51380C8C28E2214
:100233008F1A8E198D188C1753C9BF53C9DF43C941
:1002430010D2CAE4FFFEFDFCAB1AAA19A918A8171D
:10025300C3120461602575CC3075CDF830CFFDC273
:10026300CFE51A24FFF51AE51934FFF519E518341B
:0E027300FFF518E51734FFF51780C8C2CA2240
:100281008F1E8E1D8D1C8C1B75C40743C408E4FF93
:10029100FEFDFCAB1EAA1DA91CA81BC312046160B4
:1002A1002875C52C75C6CFE5C430E4FB53C4EFE512
:1002B1001E24FFF51EE51D34FFF51DE51C34FFF579
:0D02C1001CE51B34FFF51B80C553C4F7225C
:1002CE008F248E238D228C2175C40743C408E4FF2E
:1002DE00FEFDFCAB24AA23A922A821C3120461604F
:1002EE002875C5D875C6FFE5C430E4FB53C4EFE5E9
:1002FE002424FFF524E52334FFF523E52234FFF50E
:0D030E0022E52134FFF52180C553C4F722FC
:03000000020447B0
:10044700787FE4F6D8FD9000007FFF7E03E4F0A3F9
:0A045700DFFCDEFA75812402008B41
:10046100EB9FF5F0EA9E42F0E99D42F0E89C45F0F1
:010471002268
:00000001FF
